:020000040800F2
:10000000900500209D010008231B00089919000895
:10001000211B0008A90200086F240008000000004E
:10002000000000000000000000000000C31B0008EA
:100030005D03000800000000C11B0008C51B00088C
:10004000B7010008B7010008B7010008B7010008B0
:10005000B7010008B70100085F0300086503000846
:10006000B7010008B7010008B7010008B701000890
:10007000B7010008AD020008B7010008B701000889
:10008000B7010008B7010008B7010008B701000870
:10009000B7010008B7010008B7010008B701000860
:1000A000B7010008B7010008B7010008B701000850
:1000B000A11C0008AD1C0008B7010008B70100082A
:1000C000B7010008B7010008B7010008B701000830
:1000D000B7010008B7010008B7010008B701000820
:1000E000B7010008B7010008B7010008B701000810
:1000F000B7010008B7010008B7010008B701000800
:10010000B7010008B7010008B7010008B7010008EF
:100110008D1F0008B7010008B7010008B7010008EB
:10012000B7010008B7010008B7010008B7010008CF
:10013000B7010008B7010008B7010008B7010008BF
:10014000B7010008B7010008B7010008B7010008AF
:10015000B7010008B7010008B7010008B70100089F
:10016000B7010008B7010008B7010008B70100088F
:10017000B7010008B7010008B7010008000000003F
:10018000B7010008B7010008DFF80CD000F07AF8DA
:1001900000480047B1240008900500200648804729
:1001A00006480047FEE7FEE7FEE7FEE7FEE7FEE75C
:1001B000FEE7FEE7FEE7FEE74D1C000889010008A8
:1001C0002DE9F05F0546002092469B46884606468C
:1001D000814640241BE0284641464746224600F01F
:1001E00041F853465A46C01A914110D31146184659
:1001F000224600F028F82D1A67EB01084F462246E8
:100200000120002100F01FF817EB00094E41201ECD
:10021000A4F10104DFDC484631462A464346BDE8E6
:10022000F09FD2B201E000F8012B491EFBD27047CB
:100230000022F6E710B513460A4604461946FFF7B2
:10024000F0FF204610BD202A04DB203A00FA02F11C
:10025000002070479140C2F1200320FA03F31943B4
:1002600090407047202A04DB203A21FA02F0002156
:10027000704721FA02F3D040C2F1200291400843B6
:1002800019467047064C074D06E0E06840F0010350
:1002900094E8070098471034AC42F6D3FFF778FF94
:1002A0007825000898250008FEE70000014800F0C6
:1002B000DBB800003001002001681823CAB2103AF0
:1002C000B2FBF3F2054B6FF30901032A9B5CC36594
:1002D00000D9091D816508467047000058250008AF
:1002E00010B5014600208B698A6A4FF0C07453B183
:1002F000B3F5005F15D072B1012A0CD0022A0AD0E2
:10030000032A09D104E01AB1012A06D0022A03D136
:10031000C96AC90100D5012010BDC96AA142FAD03D
:1003200010BD002AF7D0012AF2D0022AF3D0032A06
:10033000F3D010BD30B50468256825F4802525600C
:10034000046863608368402B036803D09960006889
:10035000C26030BD9A600068C16030BD7047012046
:1003600000F034BA022000F031BA7047174800B5E7
:10037000016887B041F080010160016801F08001EF
:100380000591016841F0010101600068694600F0D3
:1003900001000590032000900D480190012002907B
:1003A0000C4800F01FFA00221146062000F06AFBFC
:1003B000062000F059FB00221146072000F062FBE6
:1003C000072000F051FB07B000BD000030380240AC
:1003D0000000111000000240174800B5016887B006
:1003E00041F080010160016801F080010591016820
:1003F00041F0010101600068694600F001000590CC
:10040000032000900D480190012002900C4800F05C
:10041000E9F900221146062000F034FB062000F026
:1004200023FB00221146072000F02CFB072000F0E0
:100430001BFB07B000BD0000303802400000311047
:100440000000024090F83510022903D08021416558
:1004500001207047052180F835100068016821F0FF
:1004600001010160002070472DE9F84304464FF078
:100470000009CDF8009063484FF41651A56D00684F
:10048000B0FBF1F72E6894F85C10082000FA01F137
:1004900031420FD021680A6852070BD50A6822F052
:1004A00004020A6094F85C108840A860606D40F017
:1004B0000100606594F85C104FF0010808FA01F043
:1004C000304208D021684969090604D5A860606DEA
:1004D00040F00200606594F85C10042088403042CF
:1004E00008D021680968890704D5A860606D40F0CC
:1004F0000400606594F85C1010208840304218D0E9
:1005000021680968090714D5A860206801684903B3
:1005100004D50068000308D5A16C07E00168C9058F
:1005200003D4016821F008010160216C09B1204663
:10053000884794F85C1020208840304231D02168F0
:100540000968C9062DD5A86094F8350005282068EB
:10055000016806D0490347D5006800031DD4616CCB
:100560001CE021F0160101602068416921F0800142
:100570004161206C08B9A06C20B12068016821F0AD
:100580000801016094F85C103F208840A86084F85E
:10059000349084F83580216D1FE0E16B09B120466D
:1005A0008847606D00282BD0606DC00714D00520EF
:1005B00084F835002068016821F00101016000988D
:1005C000401C0090B84203D820680068C007F6D1EC
:1005D00084F8349084F83580E16C002910D001B0A3
:1005E0002046BDE8F04308470168C905D5D4016835
:1005F00021F01001016084F8349084F83580CCE754
:10060000BDE8F8834C0000202DE9F041044600F0DD
:10061000CBF906465CB1002584F83450022084F8FA
:1006200035002068016821F0010101600DE0012022
:10063000BDE8F08100F0B8F9801B052805D920201D
:100640006065032084F83500F2E720680068C00781
:10065000F0D12268116820480140D4E90103184311
:10066000D4E903363343184363691843A369184335
:10067000E3691843236A18430843616A042903D1D4
:10068000D4E90B1319430843106020684069666A77
:1006900020F0070130460E43012704280CD1A06A40
:1006A0000643E06A40B12046FFF71AFE20B1402021
:1006B000606584F83570BAE7206846612046FFF728
:1006C000FBFD94F85C203F2191408160656584F8D2
:1006D00035700020ACE700003F8010F02DE9F041BC
:1006E0000446866D90F83400002501280DD00120C5
:1006F00084F8340094F835700020012F07D084F876
:10070000340002252846BDE8F0810220FBE70227DD
:1007100084F8357060652046FFF70CFE94F85C1095
:100720003F208840B0602068016841F016010160F8
:100730002068416941F080014161206C20B120684E
:10074000016841F0080101602068016841F0010181
:100750000160D7E770B51B4C02461B486178012A3F
:1007600013D0022A29D1012927D0042925D1022119
:10077000054600F00FF94FF0010190B1284600F056
:1007800009F9A0B1012818D118E0012912D00429D3
:1007900013D10121054600F0FDF801284FF00201B8
:1007A000ECD1284600F0F6F840B1012805D1A06848
:1007B000401E01E00221F5E7A06070BDA068401C6A
:1007C000FAE700000000002000000240044910B5D4
:1007D0000A68024202D00860FFF7BCFF10BD0000AB
:1007E000143C01402DE9F84FDFF87CB100224FF0B6
:1007F00001084FF0030A4FF00F090BF1040E00BF80
:100800000B6808FA02F42340A3426ED14D68022D12
:1008100001D0122D0ED1D50800EB850CDCF820504C
:100820005607F70E09FA07F6B5430E69BE402E4388
:10083000CCF82060066855000F790AFA05FC07F02D
:10084000030726EA0C06AF40374307604E68012EC7
:1008500005D0022E03D0112E01D0122E0ED18668A3
:10086000CF6826EA0C06AF40374387604668A64348
:100870000C79C4F30014944034434460C6688C6817
:1008800026EA0C06AC403443C4604C68E40065D5ED
:10089000364C256845F480452560246822F0030520
:1008A00004F480440094324C2E19D6F80848950779
:1008B0002F0F09FA07F5AC432E4DA84201D10025B0
:1008C00024E02D4DA84201D101251FE02B4DA84267
:1008D00001D102251AE02A4DA84201D1032515E0D5
:1008E000284DA84202D1042510E037E0264DA84249
:1008F00001D105250AE0254DA84201D1062505E0D4
:10090000234DA84201D1072500E00825BD4025431D
:10091000C6F80858DBF800405D464E689C43F60375
:1009200000D51C432C60DEF8004075464E689C43A1
:10093000B60300D51C432C600B4D08352C684E685F
:100940009C43F60200D51C432C60074D0C352C68E7
:100950004E689C43B60200D51C432C60521C102AE2
:10096000FFF44EAFBDE8F88F003C01404438024030
:100970000030014000000240000402400008024034
:10098000000C024000100240001402400018024017
:10099000001C02400069084000D0012070470AB1E5
:1009A000816170470904FBE70148806870470000D7
:1009B000400000200248816802781144816070473D
:1009C000400000200B4810B5016841F4007101603F
:1009D000016841F480610160016841F48071016047
:1009E000032000F06FF8002000F006F800F024F873
:1009F000002010BD003C024070B50D4D04464FF480
:100A00007A712878B1FBF0F00A490968B1FBF0F07F
:100A100000F0E0FA48B9102C07D200222146501EFF
:100A200000F030F800206C6070BD012070BD000047
:100A3000400000204C0000200A4808B5016841F43D
:100A400080410160006800F4804000900548001F6C
:100A5000016841F080510160006800F08050009012
:100A600008BD000044380240002809DB00F01F02E6
:100A7000012191404009800000F1E020C0F8001100
:100A800070470000F0B40E4B1B680C46C3F3022302
:100A9000C3F10705042D00D90425191D072901D22A
:100AA000002300E0DB1E012606FA05F1491E214065
:100AB00099409E40761E16403143F0BC01F0D8BCF0
:100AC0000CED00E0064900F0070208684FF6FF034E
:100AD000184040EA0220034A1043086070470000B3
:100AE0000CED00E00000FA052DE9F0470E46050088
:100AF00065D0DFF81481D8F80000F7B200F00F00DD
:100B0000B04207D288F80070D8F8000000F00F005B
:100B1000B04254D128683D4C810712D5400703D517
:100B2000206840F4E05020602878000703D5206852
:100B300040F4604020602068A96820F0F00008437D
:100B400020602878C0072DD030496868083901280E
:100B500012D0022813D0032811D009688907002970
:100B60002DDA216821F0030101432160FFF71CFF0A
:100B7000814641F2883A0EE009688903EFE7096887
:100B80008901ECE7FFF710FFA0EB0901514502D9FD
:100B90000320BDE8F0872068696800F00C00B0EB26
:100BA000810FEFD1D8F80010404601F00F01B1429B
:100BB00007D90770006800F00F00B04201D0012093
:100BC000E7E72878400705D52068E96820F4E05079
:100BD000084320602878000706D52068296920F49A
:100BE000604040EAC100206000F036F82168084A01
:100BF000C1F30311515CC840064908600020FFF7AB
:100C0000FBFE0020C5E70000003C0240083802401F
:100C1000602500084C000020044805490068096868
:100C2000044AC1F38221515CC84070474C00002047
:100C30000838024070250008044805490068096822
:100C4000044AC1F34231515CC84070474C00002057
:100C50000838024070250008154810B5006810F0EB
:100C60000C02144813D04110042A0FD0082A0ED1C8
:100C70000F4C241F2268236802F03F025B0207D555
:100C80002068C0F38810A0FB010106E0084610BDF3
:100C90002168C1F38811A1FB00010023FFF790FA3E
:100CA0002168C1F30141491C4900B0FBF1F010BDBE
:100CB000083802400024F4002DE9F84F050076D0F2
:100CC0002878DFF8F8B2BE4CC00749D0DBF8001036
:100CD0005846C1F38101012908D00068C0F38100A2
:100CE00002280AD1201D0068400206D52068800332
:100CF00036D568680028E2D032E06868B0F5803FF9
:100D000010D0B0F5A02F206810D020F480302060E3
:100D1000206820F4802020606868A0B1FFF744FEBE
:100D200006460CE0206840F48030F4E740F4802070
:100D30002060F7E7FFF738FE801B642873D820682F
:100D40008003F7D50CE0FFF72FFE064605E000BF55
:100D5000FFF72AFE801B6428F0D820688003F7D4B0
:100D60002878DFF8608280074FF000093ED5DBF875
:100D70000010584611F00C0F09D00068C0F3810034
:100D800002280BD18D48001F0068400206D420685D
:100D9000800715D5E868012809D111E0E868B8B1E5
:100DA0000120C8F80000FFF7FFFD064605E002E15C
:100DB000FFF7FAFD801B0228C0D820688007F7D50E
:100DC0002068296920F0F80040EAC10020600DE0A9
:100DD000C8F80090FFF7E8FD064604E0FFF7E4FDE1
:100DE000801B02281FD820688007F7D428780007C6
:100DF00022D5724E744869696C3671B10121016067
:100E0000FFF7D2FD074604E0FFF7CEFDC01B022826
:100E100009D830688007F7D50EE0C0F80090FFF7DA
:100E2000C3FD074605E083E0FFF7BEFDC01B0228B7
:100E30007ED830688007F7D42878400768D5DFF877
:100E40007CA100270AF1380ADAF80000C0000BD4B0
:100E5000DAF8001041F08051CAF80010DAF800000A
:100E6000012700F080500090584E3068C00510D423
:100E7000306840F480703060FFF796FD009005E028
:100E8000FFF792FD0099401A022851D83068C0053A
:100E9000F6D54A4EA868683601280FD00528306874
:100EA00010D020F001003060306820F00400306085
:100EB000A868B8B1FFF778FD00900FE0306840F007
:100EC0000100F4E740F004003060F7E7FFF76CFD45
:100ED0000099411A41F28830814264D83068800715
:100EE000F4D50EE0FFF760FD009007E0FFF75CFD32
:100EF0000099411A41F28830814254D83068800705
:100F0000F4D42FB1DAF8001021F08051CAF80010A3
:100F1000A869C0B3DBF80010C1F3810102294AD0EF
:100F20000228484607D0C8F86000FFF73DFD00E002
:100F300039E005463AE04746C8F86000FFF734FD5F
:100F4000064604E0FFF730FD801B02282BD82068FE
:100F50008001F7D4D5E907010843A96A1C4A49086A
:100F600002EB01416A6A41EA8211084395F82C10AC
:100F700040EA01611148001F016001203866FFF757
:100F800013FD054605E014E0FFF70EFD401B0228A7
:100F900009D820688001F7D50BE000BFFFF704FDFA
:100FA000401B022802D90320BDE8F88F2068800189
:100FB000F4D40020F8E70120F6E7000008380240EA
:100FC0000038024000004742800E47420070004057
:100FD0000000FFFF10B5401EB0F1807F01D301205B
:100FE00010BD4FF0E02460610F21601701F040FA5E
:100FF0000020A06107202061002010BD70477047CD
:1010000070B590F83C20012A19D0012400F83C4F1B
:101010000222427050F83C3C5A689D6822F07006EB
:101020000A684968324325F0800529435A6050F820
:101030003C2C9160447000210170084670BD022074
:1010400070BD10B5040003D094F83D0010B107E066
:10105000012010BD002084F83C00204600F00CF870
:10106000022084F83D00211D206800F025FE0120AB
:1010700084F83D00002010BD08B501681448B1F1A6
:10108000804F14D0134A914220D1016841F00201EF
:1010900001600068002200F00200009011461D204F
:1010A000FFF7F0FC1D20BDE80840FFF7DDBC01683C
:1010B00041F0010101600068002200F00100009091
:1010C00011461C20FFF7DEFC1C20ECE708BD0000E9
:1010D00040380240000400400168CA6842F0010242
:1010E000CA600068816801F00701062903D0016821
:1010F00041F0010101600020704770B5044690F88E
:101100003C00012817D0012584F83C50022084F8C7
:101110003D002068826822F0770222F47F428260DC
:101120000868502830D00DDC20284DD005DC98B35D
:1011300010283BD148E0022070BD302844D0402820
:1011400034D139E0602828D0702806D0B0F5805F0F
:101150002CD0B0F5005F29D10AE0CB68D1E901219C
:10116000206800F01AFE2068816841F0770109E0EC
:10117000CB68D1E90121206800F00FFE206881686A
:1011800041F48041816011E0CA684968206800F03C
:10119000D9FE5021206807E016E0CA684968206837
:1011A00000F0E1FE6021206800F001FE84F83D506F
:1011B000002084F83C0070BDCA684968206800F0CF
:1011C000C1FE40212068EFE7226801461046EBE7A8
:1011D000704770B50446006801694FF00005C943C7
:1011E000890715D4C168C943890711D4E91E016173
:1011F00001202077206880698007204602D0FFF711
:10120000E7FF04E000F0C0F8204600F042F925773F
:1012100020680169C943490717D4C168C943490710
:1012200013D46FF0040101610220207720688069E7
:1012300010F4407F204602D0FFF7CAFF04E000F020
:10124000A3F8204600F025F9257720680169C943F5
:10125000090716D4C168C943090712D46FF0080101
:101260000161042020772068C0698007204602D0F1
:10127000FFF7AEFF04E000F087F8204600F009F920
:10128000257720680169C943C90617D4C168C943D5
:10129000C90613D46FF0100101610820207720687F
:1012A000C06910F4407F204602D0FFF791FF04E0B0
:1012B00000F06AF8204600F0ECF825772068016914
:1012C000C943C90708D1C168C943C90704D1891EE8
:1012D0000161204600F000F920680169C943090650
:1012E00009D4C168C943090605D46FF080010161C2
:1012F0002046FFF783FE20680169C943490609D4E7
:10130000C168C943490605D46FF040010161204618
:1013100000F080F920680169C94389060BD4C168CF
:10132000C943890607D46FF0200101612046BDE85A
:101330007040FFF764BE70BD10B586B0044614213E
:101340006846FEF775FF2068B0F1804F15D10C4854
:101350000021026842F001020260006800F0010012
:101360000590202000900220CDE901010120CDE967
:10137000031069460348FFF735FA06B010BD0000B8
:101380003038024000000240704770B5044690F8C3
:101390003C000D4601280DD0012684F83C60022057
:1013A00084F83D0042B1042A18D0082A2AD00C2A19
:1013B0004DD139E0022070BD206800F001FD2068A9
:1013C000816941F0080181612068816921F004018F
:1013D0008161206881692A69114311E0206800F069
:1013E0001FFD2068816941F4006181612068816985
:1013F00021F480618161206881692A6941EA0221C2
:10140000816124E0206800F041FD2068C16941F05D
:101410000801C1612068C16921F00401C16120682F
:10142000C1692A69114311E0206800F063FD20685A
:10143000C16941F40061C1612068C16921F4806122
:10144000C1612068C1692A6941EA0221C16184F849
:101450003D60002084F83C0070BD10B5040003D04E
:1014600094F83D0010B107E0012010BD002084F881
:101470003C00204600F00CF8022084F83D00211DBD
:10148000206800F019FC012084F83D00002010BD08
:101490007047704710B504460068012200F070FCE8
:1014A0000B492068884202D00A49884203D1416C26
:1014B00041F4004141642068816801F00701062978
:1014C00003D0016841F001010160002010BD00005F
:1014D00000000140000401402DE9F0414A49006844
:1014E000012309680025494C42F2107788420CD14B
:1014F000A068A0F5E260B0F50050C4E9027001D424
:10150000257002E023704042E0603F4800218A30AD
:101510004554491C0929FBDBFB21017021784170EE
:10152000E268FA2192FBF1F6867092FBF1F601FB7C
:101530001622C27062780426042A01D0012A1FD024
:101540000671FC224271A268B2FBF1F38371B2FB17
:10155000F1F301FB1321C171A078052812D0A07806
:10156000401CA070284A00218032A2F1CC00535CBC
:101570004354491C0929FADD0178FB290CD01BE0F2
:101580000371DEE7204964238A310A22A1F14A006F
:1015900000F0A4F9A570E5E78278C17802EB420378
:1015A000C3EBC21201EB4201A18001796170417865
:1015B0002161007A00B1A76094ED030AA088F8EEDB
:1015C000C00A00EE100AB8EE400A00F0ABFABCEE1A
:1015D000C00A10EE100AE08020690D4C4FF00002A6
:1015E00030B140212046FFF7DAF90122802105E0E1
:1015F00080212046FFF7D3F9012240212046BDE893
:10160000F041FFF7CCB900009C0000200000002052
:10161000000802407047704770B5026804461068C1
:10162000D168536910F00F0F50D003F0010501F499
:10163000907635435DD0C20705D0CA0503D5E26B6D
:1016400042F00102E263420705D5DA0703D0E26BFC
:1016500042F00202E263820705D5DA0703D0E26BAB
:1016600042F00402E263020705D5DA0703D0E26B19
:1016700042F00802E263E26B002A33D0800604D510
:10168000880602D5204600F0EEFC20684069E16B38
:10169000C0F38010090700D428B3204600F0CCFC2A
:1016A0002068416949061AD5416921F0400141612C
:1016B000606BA0B11B490165606BFEF7C3FE00289B
:1016C00010D0606B016DBDE870400847830610D5EF
:1016D0008B060ED52046BDE8704000F0C4BC204605
:1016E000FFF799FF70BD2046FFF795FF0020E063EC
:1016F00070BD030606D50B0604D52046BDE8704034
:1017000000F052BE4006F3D54806F1D5D168204618
:1017100021F04001D160202184F8391000F03BF91C
:1017200070BD0000991F000870B5040004D094F843
:101730003900002510B106E0012070BD84F8385052
:10174000204600F023F8242084F839002068C1687E
:1017500021F40051C160204600F0D0FC20680169EE
:1017600021F4904101612068416921F02A01416121
:101770002068C16841F40051C160E563202084F80D
:10178000390084F83A00002070BD000070B586B0C2
:10179000064614216846FEF74BFD2449306888420E
:1017A00041D123480025016841F40021016000680F
:1017B00000F4002005901E481038016841F0040133
:1017C00001600068694600F0040005904FF4406035
:1017D0000090022001900120029003200390082035
:1017E00004901448FEF7FEFF144C13482060400597
:1017F000C4E901054014C4E9035080106561C4E9DF
:101800000650256220466562FEF7FEFE08B1FEF72F
:10181000ACFD7463002211463420A663FFF732F951
:101820003420FFF721F906B070BD0000004C0040E5
:101830004038024000080240406002403001002071
:10184000F8B5044690F83A0020283CD1C1B3BAB3A9
:1018500094F83800012836D0012084F83800A162BD
:10186000A2850025E563222084F83A00636B1748BF
:10187000D863636B16481864636B1648D864606B52
:10188000134605650846666B216802463046091D09
:10189000FEF724FF206801684168009184F8385001
:1018A000C16841F48071C1602068416941F0010163
:1018B00041612068416941F0400141610020F8BD6B
:1018C000FFE70120FBE70220F9E70000F31F000813
:1018D0002F200008A91F0008704770472DE9F84322
:1018E000044690F839001F4616460D46202850D170
:1018F000A5B19EB194F8380001284AD0012084F89F
:1019000038004FF00008C4F83C80212084F83900EA
:10191000FFF74AF8A6848146E68426E00120BDE868
:10192000F883E08C401EE084A0684B46B0F5805FF1
:101930004FF000024FF080012046009703D000F0E6
:1019400064FDE8B90DE000F060FDC8B928882168A1
:10195000C0F308004860206908B16D1C05E0AD1CAB
:1019600003E0216815F8010B4860E08C0028D8D10D
:101970004B46002240212046009700F046FD08B16A
:101980000320CCE7202084F8390084F83880002038
:10199000C5E70220C3E77047FEE7000070B586B0D8
:1019A00014216846FEF744FC26480025016841F0F2
:1019B00080010160016801F080010591016841F03A
:1019C00001010160016801F001010591016841F028
:1019D0000401016000681C4E00F004000590012223
:1019E000C0213046FEF7DBFF03200090174801249A
:1019F000CDE9010469461648FEF7F4FE4020CDE922
:101A0000000469463046CDE90245FEF7EBFE802032
:101A1000CDE9000469463046CDE90245FEF7E2FE15
:101A2000002211460620FFF72DF80620FFF71CF8CC
:101A3000002211460720FFF725F80720FFF714F8CA
:101A400006B070BD3038024000080240000011109E
:101A50000000024010B58EB0002407940894099449
:101A60000A940B941C2168460C94FEF7E1FB16487F
:101A70004FF0804101601421C0E9011440F28F1140
:101A8000C0E903148461FFF7DCFA4FF4805007903B
:101A900007A90D48FFF731FB0B48FFF7DEFC0B945D
:101AA0000BA909480C94FFF7ABFA6020CDE90004BC
:101AB00002940022694604480494FFF766FC024839
:101AC000FFF73AFC0EB010BD5C00002010B586B0E8
:101AD00000241248009401940294039404940E4943
:101AE0000594016041F26801C0E9011440F28F11D0
:101AF000C0E903148461FFF7A4FA4FF4805000900A
:101B000069460648FFF7F9FA049404A903480594C6
:101B1000FFF776FA06B010BD000400409C000020DC
:101B2000FEE77047254870EE600AD0ED0A1AC0ED56
:101B30000B1A90ED0C1A80ED0A1AC0ED0C0A90ED0C
:101B40000F0A80ED090A90ED073A90ED082AD0EDD2
:101B5000053AC3EE022A30EEC13A03EE830AB6EE2E
:101B6000003A22EE032A90ED063A22EE032A30EEE6
:101B7000813A02EE030AB0EE002A41EE420A70EE0C
:101B8000A10A02EEA00A80ED0F0AD0ED0D0AB4EE14
:101B9000E00AF1EE10FA02DCF0EE400A01E0C0EDDE
:101BA0000F0A90ED0E0AF4EEC00AF1EE10FA02D31D
:101BB000B0EE600A704780ED0F0A70470000002009
:101BC00070477047FEF7F6BE30B593B030216846D7
:101BD000FEF72EFB14210CA8FEF72AFB194800255E
:101BE000016841F080510160006800F08050119060
:101BF0001548016841F4804101600068022400F446
:101C00008040119001200090000401908001CDE9F6
:101C10000640082008904FF4A870CDE9090404207C
:101C20000B906846FFF748F80CA90F2081E83100B7
:101C30004FF4A0500F90109005210CA8FEF754FF10
:101C400013B030BD403802400070004010480168B9
:101C500041F4700101600F48016841F00101016029
:101C60000C4A00210832116002680B4B1A400260D6
:101C7000031D0A4A1A60026822F4802202600548A5
:101C80000C30016002495806803908607047000036
:101C900088ED00E000380240FFFFF6FE103000241F
:101CA0000148FFF796BA00005C0000200148FFF7EA
:101CB00090BA00009C000020F0B50268254C264D2B
:101CC000264E274F274B4FF0804CA04209D060454D
:101CD00007D0A84205D0B04203D0B84201D0984204
:101CE00004D122F0700E4A6842EA0E02A0421BD0D4
:101CF000604519D0A84217D0B04215D0B84213D0D1
:101D0000984211D0184DA8420ED0184DA8420BD0C1
:101D1000174DA84208D0174DA84205D0164DA8422D
:101D200002D0164DA84203D122F44075CA682A4356
:101D30004D6922F080022A4302608A68C2620A6802
:101D40008262A04201D0984201D109690163012158
:101D50004161F0BD00000140000400400008004067
:101D6000000C0040000401400040014000440140DC
:101D70000048014000180040001C004000200040C6
:101D800010B501F01F030121046A99408C430462DD
:101D9000016A9A401143016210BD10B5846842EA9D
:101DA000032224F47F440A432243826010BD8268E8
:101DB00022F070020A4342F0070181607047000080
:101DC000F0B5026A22F001020262036A4268846985
:101DD000124E24F073050C682C4323F002058B6827
:101DE0002B430D4DA84201D0B04205D123F0080786
:101DF000CB683B4323F00403A84201D0B04205D195
:101E00004D6922F4407215438A692A434260846115
:101E1000496841630362F0BD0000014000040140D5
:101E2000F0B5026A22F010020262026A4368846915
:101E30000D6824F4E64444EA05248D6822F020026B
:101E400042EA05120F4D104EA84201D0B04206D111
:101E5000CF6822F0800242EA071222F04002A84234
:101E600001D0B04207D14D6923F4406343EA8503B2
:101E70008D6943EA85034360846149688163026236
:101E8000F0BD00000000014000040140F0B5026A0E
:101E900022F480720262026A4368C46922F400720A
:101EA00024F073050C68124E2C438D6842EA05221B
:101EB0000E4DA84201D0B04206D1CF6822F4006294
:101EC00042EA072222F48062A84201D0B04207D140
:101ED0004D6923F4405343EA05138D6943EA051322
:101EE0004360C4614968C1630262F0BD0000014003
:101EF0000004014030B5026A22F480520262046A92
:101F00004268C3690D6823F4E64343EA05238D68FC
:101F100024F4005444EA0534084DA84202D0084D88
:101F2000A84204D14D6922F4804242EA85124260FF
:101F3000C36149680164046230BD000000000140D3
:101F40000004014010B5036A046A24F0010404622D
:101F5000846924F0F00444EA021423F00A020A43DC
:101F60008461026210BD10B5036A23F0100303629E
:101F70008369046A23F4704343EA023224F0A00325
:101F800043EA01118261016210BD00000148FFF7C0
:101F900043BB0000DC00002010B5806B0021C18530
:101FA000C184FFF738FB10BD70B5846B20684069B1
:101FB00094F83910C0F3C0100025212904D118B1BC
:101FC000E584204600F046F82068406994F83A100D
:101FD000C0F38010222904D118B1E585204600F015
:101FE0002BF8E06B40F01000E0632046FFF713FB96
:101FF00070BD10B50146806B09680968C90513D426
:102000000021C1850168CA6822F48072CA60016833
:102010004A6922F001024A6101684A6922F04002DD
:102020004A61202180F83A10FFF756FC10BD10B528
:10203000806BFFF752FC10BD0168CA6822F49072F1
:10204000CA6001684A6922F001024A61202180F8D1
:102050003A1070470168CA6822F0C002CA602021A5
:1020600080F83910704710B590F83A10222901D045
:10207000022010BD8168B1F5805F11D0016900298F
:1020800001681FD0496801F07F03816A4A1C82629F
:102090000B70C18D491E0904090CC18518D02BE0B5
:1020A0000269816A002A0268526805D0D2B20A80A9
:1020B000816A491C8162ECE7C2F308020A80816AE6
:1020C000891CF7E74A68816A4B1C83620A70E0E763
:1020D0000168CA6822F02002CA600168CA6822F456
:1020E0008072CA6001684A6922F001024A612021B7
:1020F00080F83A10FFF7F0FB002010BD2DE9F04109
:10210000044600680169E26821F44051114301610D
:102110002169A068E26908436169114322680843A4
:10212000D16849F20C6399430143D1602068416949
:10213000A26921F4407111434161E2696425B2F55D
:10214000004F9748974922684FF032083FD08A42A3
:1021500001D082427CD1FEF76FFD00EBC00101EBA4
:10216000001061688900B0FBF1F6FEF765FD00EB39
:10217000C00101EB001061688900B0FBF1F0B0FB19
:10218000F5F06FF01801484306EB800108EB0110F1
:10219000B0FBF5F000F0F006FEF74EFD00EBC001DD
:1021A00001EB001061688900B0FBF1F0B0FBF5F0C5
:1021B00006EB0016FEF740FD00EBC00101EB00103E
:1021C00061688900B0FBF1F7FEF736FDD2E08A4284
:1021D00001D082423DD1FEF72FFD00EBC00101EBA3
:1021E000001061684900B0FBF1F0B0FBF5F00601AA
:1021F000FEF722FD00EBC00101EB00106168490011
:10220000B0FBF1F7FEF718FD00EBC00101EB001089
:1022100061684900B0FBF1F0B0FBF5F06FF0180118
:10222000484307EB800108EBC100B0FBF5F000F07C
:10223000F80006EB4006FEF7FFFC00EBC00101EBE7
:10224000001061684900B0FBF1F7FEF7F5FC3CE0D7
:1022500055E0FEF7E1FC00EBC00101EB0010616806
:102260004900B0FBF1F0B0FBF5F00601FEF7D4FC3D
:1022700000EBC00101EB001061684900B0FBF1F711
:10228000FEF7CAFC00EBC00101EB001061684900D9
:10229000B0FBF1F0B0FBF5F06FF01801484307EB2D
:1022A000800108EBC100B0FBF5F000F0F80006EB90
:1022B0004006FEF7B1FC00EBC00101EB00106168C5
:1022C0004900B0FBF1F7FEF7A7FC00EBC00101EB02
:1022D000001061684900B0FBF1F0B0FBF5F06FF061
:1022E0001801484307EB800108EBC100B0FBF5F093
:1022F00000F00700216830448860BDE8F081FEF7F7
:102300008BFC00EBC00101EB001061688900B0FBA1
:10231000F1F6FEF781FC00EBC00101EB00106168F3
:102320008900B0FBF1F0B0FBF5F06FF01801484305
:1023300006EB800108EB0110B0FBF5F000F0F006B1
:10234000FEF76AFC00EBC00101EB00106168890038
:10235000B0FBF1F0B0FBF5F006EB0016FEF75CFC0D
:1023600000EBC00101EB001061688900B0FBF1F7E0
:10237000FEF752FC00EBC00101EB00106168890020
:10238000B0FBF1F0B0FBF5F06FF01801484307EB3C
:10239000800108EB0110B0FBF5F000F00F00A9E799
:1023A000001401400010014090F83910212901D09B
:1023B000022070478168B1F5805F016A0BD04A1C2A
:1023C0000262026809785160C18C491E0904090C37
:1023D000C1840ED017E009880268C1F3080151607A
:1023E00001690029016A02D0491C0162ECE7891CDD
:1023F000FBE70168CA6822F08002CA600068C16811
:1024000041F04001C160002070472DE9F04198463D
:1024100017460E460446069D1DE0681C1BD02DB1D4
:10242000FEF7C2FAA0EB0800A84214D92068C168E0
:1024300021F4D071C1602068416921F0010141613E
:10244000202084F8390084F83A00002084F838000D
:102450000320BDE8F0812068006836EA000004D05F
:102460000020B842D9D00020F3E70120F9E7FEE7C9
:102470000907090E002804DB00F1E02080F80014B1
:10248000704700F00F0000F1E02080F8141D704745
:1024900002E008C8121F08C1002AFAD1704770472D
:1024A000002001E001C1121F002AFBD1704700008B
:1024B00008B5FEF787FAFFF787FBFFF76FFAFFF71C
:1024C00005FB21480024016841F400110160006807
:1024D000224600F40010009021460D20FEF7D2FAAB
:1024E0000D20FEF7C1FAFFF7B5FA19481749016048
:1024F0004FF41651C0E901140C21C460C0E9044135
:102500008461C461FFF710F911484038FEF7E4FD1B
:102510000F490A2240310E48FFF792F90C4800217A
:102520008038FEF7B7FF0A4D0A4C803D60780128DD
:1025300001D0042805D0FDF719FFE0882968486319
:10254000F4E7FDF749FFF8E730380240004C00405F
:10255000DC00002000000020000610160006101607
:102560000000000000000000010203040607080943
:10257000000000000102030498250008000000206C
:102580005000000090240008E825000850000020BA
:1025900040050000A0240008000100000000000029
:1025A0001027000000000000000000000000E040D4
:1025B00000000040CDCC4C3ECDCCCC3D0000000016
:1025C0000000000000000000000000000080C74381
:1025D00000000000000000000100000010000000EA
:0825E000000000000024F400DB
:040000050800018965
:00000001FF
